:020000040800F2
:1000000050070020C1010008810D0008830D000881
:10001000850D0008870D0008890D0008000000000C
:100020000000000000000000000000008B0D000830
:100030008D0D0008000000008F0D0008930D0008D2
:10004000DB010008DB010008DB010008DB01000820
:10005000DB010008DB010008DB010008DB01000810
:10006000DB010008DB010008DB010008872900082C
:100070008D29000893290008992900089F29000864
:10008000A5290008AB290008DB010008DB010008F6
:10009000DB010008DB010008DB010008DB010008D0
:1000A000DB010008DB010008DB010008DB010008C0
:1000B000DB010008DB010008DB010008DB010008B0
:1000C000DB010008DB010008DB010008DB010008A0
:1000D000DB010008DB010008DB010008DB01000890
:1000E000DB010008DB010008DB010008DB01000880
:1000F000DB010008DB010008DB010008B129000872
:10010000DB010008DB010008DB010008DB0100085F
:10011000DB010008DB010008DB010008DB0100084F
:10012000B7290008BB290008C1290008C729000811
:10013000CD290008DB010008DB010008DB01000815
:10014000DB010008DB010008DB010008DB0100081F
:10015000D3290008D9290008DF290008DB0100089D
:10016000DB010008DB010008DB010008DB010008FF
:10017000DB010008DB010008DB010008DB010008EF
:10018000DB010008DB010008DB010008DB010008DF
:10019000DB010008DB010008DB010008DB010008CF
:1001A000DB010008DB010008DB010008DFF80CD0F0
:1001B00002F020FC00480047410D000850070020D5
:1001C0000648804706480047FEE7FEE7FEE7FEE7F1
:1001D000FEE7FEE7FEE7FEE7FEE7FEE75B0E000850
:1001E000AD0100082849084328490860704730B528
:1001F0000F23C27801780125FAB1244A126801F16F
:10020000E02102F4E062C2F5E062C2F30722C2F12B
:100210000404D3404278A24084781C401443220155
:1002200081F80024007800F01F018D404009800013
:1002300000F1E020C0F8005130BD01F01F00854002
:100240004809800000F1E020C0F8805130BD104A1C
:10025000114001430D48001F016070470B4A121DF9
:100260000029116801D0014300E08143116070470B
:100270004FF0E0210428086903D020F00400086151
:10028000704740F00400FAE70000FA050CED00E0CA
:1002900080FFFF1FF948016841F001010160F74A42
:1002A0000021083211600268F54B1A400260031DFC
:1002B000F44A1A60F14BF44A84331A60F14A103A56
:1002C0001B1D1A60026822F480220260EB480C3089
:1002D0000160181D01607047E8490022891C0A70FE
:1002E0000870704702460020510901290CD00229EC
:1002F0000CD0E2497431096802F01F0201239340D7
:100300000B4200D001207047DC49F4E7DB49703133
:10031000F1E718B500204FF4A04400903120FFF71A
:10032000E1FF0099491C0091A14201D00028F5D0BD
:100330003120FFF7D7FF002800D0012018BDCF4A99
:10034000116821F0F80141EAC00010607047CF4900
:1003500008607047C949002270310A700A7001288C
:1003600002D0042801D1052008707047C8490860F0
:10037000704741EA82115A0810B5C64B029C03EB44
:1003800002421143014341EA0460BC49091D08606F
:1003900010BDBE4908667047800140EA0160B74958
:1003A00040EA0270843108607047B8498866704737
:1003B000800140EA0160B14940EA0270883108607A
:1003C0007047B24908677047B049C8647047AB4B83
:1003D00008331A68084322F0EC6210431860704733
:1003E000A64B08331A68084322F07842104318607D
:1003F0007047A24A0832116821F0030101431160DD
:1004000070479E480830006800F00C0070479B4A17
:100410000832116821F0F001014311607047974ADA
:100420000832116821F4E051014311607047934A8A
:100430000832116821F4604141EAC0001060704741
:1004400070B58E4B08331968934C11F00C0104D031
:100450006610042903D0082903D004601BE006605D
:1004600019E0864A121D1168C1F38055116801F028
:100470003F0115B1B6FBF1F101E0B4FBF1F11468F5
:100480001268C4F388146143C2F30142521C520043
:10049000B1FBF2F1016019680F2202EA11117F4AE3
:1004A000545C0168E14041601C68072505EA94241A
:1004B000145D21FA04F484601B6805EA5333D25CAE
:1004C000D140C16070BDC0F30121032908D16B4B3D
:1004D00008331968724A21F4F81102400A431A607D
:1004E000664970310A68C0F30B0002430A60704726
:1004F000674944390860704765494039086070476A
:100500006249C1F85C0170475C4A8C32116821F481
:100510004011014311607047584A8C32116821F430
:100520004001014311607047544A8C321168401EEB
:1005300021F01F01014311607047504A8C3211684D
:100540006FF0FF0321F4F85103EB00200843106023
:1005500070474A4A8C32116821F4403101431160DE
:1005600070475049C1F8E0017047444A30320029D1
:10057000116801D0014300E08143116070473F4A98
:1005800034320029116801D0014300E08143116039
:1005900070473A4A38320029116801D0014300E01F
:1005A000814311607047354A40320029116801D0FB
:1005B000014300E0814311607047304A4432002912
:1005C000116801D0014300E08143116070472B4A5C
:1005D00010320029116801D0014300E0814311600D
:1005E0007047264A14320029116801D0014300E007
:1005F000814311607047214A18320029116801D0E7
:10060000014300E08143116070471C4A20320029F9
:10061000116801D0014300E0814311607047174A1F
:1006200024320029116801D0014300E081431160A8
:100630007047124A50320029116801D0014300E08E
:100640008143116070470D4A54320029116801D06E
:10065000014300E0814311607047084A5832002985
:10066000116801D0014300E0814311607047034AE3
:1006700060320029116817D0014316E000380240AB
:10068000FFFFF6EA1030002400300020000047424F
:10069000800E47420000FFFF0024F400000000200D
:1006A000FFFCFF0F00104742814311607047194A59
:1006B0000029116801D0014300E0814311607047B7
:1006C00014490C310128086803D020F008000860A4
:1006D000704740F00800FAE70E4A573A00291178AF
:1006E00001D0014300E08143117070470948103088
:1006F000016841F08071016070470146054A0020A1
:10070000583A12680A4200D0012070470149563910
:100710000870704764380240774910B5884206D1A6
:1007200001210846FFF753FF002101205BE07349D8
:10073000884206D101210220FFF749FF0021022053
:1007400051E06F49884206D101210420FFF73FFFA5
:100750000021042047E06B49884206D1012108208E
:10076000FFF735FF002108203DE06749884206D1A8
:1007700001211020FFF72BFF0021102033E06349F7
:10078000884206D101212020FFF721FF00212020EF
:1007900029E05F49884206D101214020FFF717FF79
:1007A000002140201FE05B49884206D101218020C2
:1007B000FFF70DFF0021802015E05749884202D144
:1007C000012184150AE05549884202D101214415CE
:1007D00004E0534988420AD1012104152046FFF75D
:1007E000F6FE00212046BDE81040FFF7F0BE10BD28
:1007F000F0B5002201274FF0030C0B6807FA02F551
:100800002B40AB422CD1066853000CFA03F4A643EC
:1008100006600E79D0F800E09E4046EA0E060660BB
:100820000E79012E01D0022E12D18668A643866071
:100830004E79D0F808E09E4046EA0E06866046688B
:10084000AE43466045688E799640B6B23543456002
:10085000C568A543C560CC799C40C3681C43C4608F
:10086000521C102AC9D3F0BD4FF6FF710160002160
:10087000017141718171C171704708B541F48032D5
:100880000092C261C1610099C161C169C0690090F3
:1008900008BD0246002012690A4200D001207047BC
:1008A000006980B270470246002052690A4200D0B7
:1008B00001207047406980B27047018370474183CF
:1008C00070470AB1018370474183704741617047A7
:1008D00042694A40426170474B07DB0E9A40C908A3
:1008E00010B500EB8100016A0F249C40A143016216
:1008F000016A1143016210BD000002400004024081
:1009000000080240000C02400010024000140240A7
:1009100000180240001C0240002002400024024057
:100920000028024070B55A484168491C41608168FE
:1009300011B18168491E8160AFF300800024554EDB
:1009400018E006EB8405686890B1017B81B182688C
:1009500072B1521E826069680AD148690969884784
:100960006868016881606868416809B9002101739D
:10097000641CE4B23078A042E3D870BD46480168F8
:100980004FF47A70B1FBF0F0401EB0F1807F12D2CC
:100990004FF0E0225061414BF02083F8140D00200D
:1009A0009061072010613E48B1FBF0F13848C1600A
:1009B000012101707047FEE735480078002805D016
:1009C0004FF0E020016941F00201016170474FF0F2
:1009D000E020016921F00201016170472DE9F04733
:1009E0002C4C0546DDF8209020781E461746884698
:1009F000052802D30020BDE8F087182002F044F853
:100A00000028F8D00560C0E901850773C0E90469D2
:100A1000217804EB810148602178491C2170EAE7C4
:100A20001C4B30B400211A7806E003EB81046468A3
:100A3000844203D0491CC9B28A42F6D88A4218D0EF
:100A400003EB81004068EFF3108472B605E003EB1E
:100A50008102491C9568C9B255601A78521E8A42B3
:100A6000F5DC1978491E197004B962B630BC01F082
:100A7000E3BF30BC7047002101737047012101734F
:100A8000704701688160704741607047016070473E
:100A900010000020E0000020200000200FE000E017
:100AA000C0C62D00A3490844C0F38F2070472DE92C
:100AB000F04F9A46DDE909B889460346FFF7F2FF91
:100AC000C5B200204FF0030E0121814011EA090F49
:100AD00028D0994E36F815400C4326F81540DF68AB
:100AE00044000EFA04F6B7430BFA04FC47EA0C077D
:100AF000DF601F6802FA04FCB74347EA0C071F6077
:100B0000012A01D0022A0DD15F6889B28F430AFA07
:100B100000F189B20F435F60996808FA04F4B143A9
:100B200021439960401CC0B21028CDD3BDE8F08F9E
:100B300000B5FFF7B7FF01218140804802681143EB
:100B4000016000BDFCB51646DDE907C50C0007468F
:100B500008D0FFF7EDFFCDE900C532462146384603
:100B6000FFF7A5FFFCBD2DE9FC4F9946DDE90BB76A
:100B700092460D00064622D0FFF7DAFF002201213F
:100B80004FF00F0C01FA02F028420DD0D00806EB0E
:100B90008003186A5407E40E0CFA04F820EA0800EF
:100BA00007FA04F420431862521C102AEAD3CDE954
:100BB000009B5346022229463046FFF778FFBDE8E6
:100BC000FC8FF0B50E460546FFF76CFF00225A4930
:100BD000C4B24FF0010C03270CFA02F333420CD0DD
:100BE00028684FEA420E07FA0EFE40EA0E0028601F
:100BF00031F81400984321F81400521CD2B2102A84
:100C0000EAD3F0BDF0B500220125032605FA02F370
:100C10000B4205D00468570006FA07F39C430460B2
:100C2000521CD2B2102AF1D3F0BDF0B50022012738
:100C3000032607FA02F33C460B4208D0056853002E
:100C400006FA03FC25EA0C059C4025430560521C6E
:100C5000D2B2102AEDD3F0BDF0B500220125032653
:100C600005FA02F30B4205D00468570006FA07F3B1
:100C70001C430460521CD2B2102AF1D3F0BDF0B56F
:100C8000002201260324022706FA02F30B4209D0B0
:100C90000568530004FA03FC25EA0C0507FA03F380
:100CA0001D430560521CD2B2102AEDD3F0BDF0B541
:100CB00000230127032507FA03F40C4209D0C66874
:100CC0005C0005FA04FC26EA0C0602FA04F426434A
:100CD000C6605B1CDBB2102BEDD3F0BD41F480325B
:100CE000C261C161C261C169C0697047002102E08F
:100CF000491C89B240080128FAD80846704700B557
:100D0000FFF7D0FE012181400C4802688A4302604F
:100D100000BD00B5FFF7C6FE074931F8100000BD61
:100D200000B5FFF7BFFE044931F81000C04380B2A0
:100D300000BD00000000FEBFF80000203038024077
:100D40001CB500F08AF801F02FF9032001F088F9B2
:100D5000002000F0DEFF4FF6E4310020CDE9000175
:100D60009621034B03A2084601F0EDF9FEE70000CF
:100D700034000020707269766565657400000000BB
:100D80007047FEE7FEE7FEE7FEE7704770477047F3
:100D9000704710B5FFF7C6FD10BD00001CB500215F
:100DA0005B4A00910191106840F4803010604FF46C
:100DB000A043106800F4003001900098401C00909F
:100DC000019810B900989842F3D11068800342D579
:100DD000012001904E484030016841F0805101608F
:100DE0004C49086840F440400860494808300368AE
:100DF0000360036843F400430360036843F4A053B3
:100E00000360041F444B2360136843F08073136036
:100E100013689B01FCD50A6842F480320A604A6874
:100E2000D203FCD50A6842F400320A604A68920391
:100E3000FCD53A4A40F205711160016821F00301C6
:100E40000160016841F0020101600168C1F38101A4
:100E50000229FAD11CBD01911CBD314810B50168B1
:100E600041F4700101602A48016841F0010101600C
:100E7000274A00210832116002682A4B1A4002609A
:100E8000031D294A1A60026822F480220260204869
:100E90000C300160FFF782FF21494FF0006080397C
:100EA000086010BD70B51A4D083528681F4B2049E1
:100EB00010F00C0004D05E10042803D0082803D0E2
:100EC0000B601BE00E6019E0114A121D1068C0F3A0
:100ED0008054106800F03F0014B1B6FBF0F001E060
:100EE000B3FBF0F013681268C3F388135843C2F3DE
:100EF0000142521C5200B0FBF2F0086028680C4A14
:100F0000C0F30310121D105C0A68C2400A6070BD75
:100F10000038024000700040085A4007003C024080
:100F200088ED00E0FFFFF6FE103000240024F400FE
:100F3000200000201CB528B1032802D1FE48AFF3E1
:100F400000801CBD05210320CDE9000100231A46C5
:100F50004FF4E041F948FFF706FE1CBD7CB50525BE
:100F6000F74E032438B101280BD0032802D1F548ED
:100F7000AFF300807CBD00231A464FF46071304609
:100F80000CE000231A464FF400613046CDE90045DD
:100F9000FFF7E9FD0023EC481A46C021CDE90045E2
:100FA000FFF7E1FD7CBD1CB50522E84C032138B1FB
:100FB00001280BD0032802D1E548AFF300801CBD07
:100FC000CDE9001200231A46642105E0CDE90012A4
:100FD00000231A464FF4E0412046FFF7C4FD1CBD34
:100FE0001CB50622032138B101280CD0032802D1F8
:100FF000D848AFF300801CBDCDE9001200231A468B
:101000003821D54806E0CDE9001200231A464FF4F6
:10101000E051D248FFF7A7FD1CBD7CB50525CE4E9B
:10102000032448B1012815D0022819D0032802D181
:10103000CB48AFF300807CBD00231A464FF480619B
:101040003046CDE90045FFF78EFD00231A460C21FE
:10105000C24809E000231A464FF46041304603E0DD
:101060000023C0481A460D21CDE90045FFF77BFD5E
:101070007CBD1CB50522032138B101280CD0032802
:1010800002D1B948AFF300801CBDCDE900120023A6
:101090001A46E021B54805E0CDE9001200231A46C2
:1010A0003821AD48FFF75FFD1CBD2DE9FF4F85B02E
:1010B0000446DDE912BA99461646684600F009FB77
:1010C000A948AB4F0025844208D1386840F48050CD
:1010D00038600698FFF7CDFFADF80450A048DFF860
:1010E00090828442A8F104080AD1D8F8001041F493
:1010F0008041C8F800100698FFF78FFFADF8045044
:10110000944884420AD1D8F8001041F40041C8F84C
:1011100000100698FFF764FFADF804508C48844235
:1011200008D1386840F4005038600698FFF73BFF5C
:10113000ADF804508348844208D1386840F48010E8
:1011400038600698FFF70AFFADF804507A488442E9
:1011500008D1386840F4001038600698FFF7EAFEBE
:10116000ADF80450ADF80C90ADF800504FF400709D
:10117000ADF80EA0ADF802B0ADF80A0046B10121FD
:10118000012E08D00220022E08D0032E0BD00EE034
:10119000ADF8065004E0ADF8065006E0ADF80600E4
:1011A000ADF8085003E0ADF80600ADF8081020884F
:1011B00020F0400020806946204600F00BFA20888D
:1011C00040F04000208009B0BDE8F08F2DE9FC41DF
:1011D0000446654800250F464FF48276844205D1C7
:1011E000CDE9006520230022FFF75FFF5C488442C1
:1011F00006D1CDE90065202300223946FFF755FFCF
:101200005448844206D1CDE90065202300223946A6
:10121000FFF74BFF4E48844206D1CDE900652023FD
:1012200000223946FFF741FF4648844206D1CDE906
:101230000065202300223946FFF737FF3E488442ED
:1012400006D1CDE90065202300223946FFF72DFFA6
:10125000BDE8FC812DE9FC410446434800251746C2
:1012600088464FF48276844204D1CDE9006520237C
:10127000FFF71BFF3A48844206D1CDE900652023E1
:101280003A464146FFF711FF3248844206D1CDE984
:10129000006520233A464146FFF707FF2C48844269
:1012A00006D1CDE9006520233A464146FFF7FDFE11
:1012B0002448844206D1CDE9006520233A464146C0
:1012C000FFF7F3FE1C488442C2D1CDE9006520231C
:1012D0003A464146FFF7E9FEBAE72DE9FC470446E6
:1012E000DDE90A6520481F4690468946844205D1BB
:1012F000CDE9006513463A46FFF7D7FE1848844209
:1013000006D1CDE9006543463A464946FFF7CDFE92
:101310001048844206D1CDE9006543463A46494625
:10132000FFF7C3FE0A48844226D1CDE90065434653
:101330003A4649461EE000000054014000180240B1
:101340000014024000500140001C02400010024006
:1013500000340140003C004000040240000802400C
:1013600000380040002002400030014000000240F0
:1013700044380240FFF799FE7748844206D1CDE910
:10138000006543463A464946FFF78FFE734884425C
:1013900006D1CDE9006543463A464946FFF785FE4A
:1013A000BDE8FC877FB50D00044620D06846FFF7F6
:1013B00047F86B48844208D06A48844205D06648A2
:1013C000844202D06548844201D1039900E0029929
:1013D00000200124421C04FA02F3B1FBF3F3AB42F8
:1013E00002D8C00004B070BDD0B20828F2D33820B3
:1013F000F8E702880388C2F3C02223F04003038089
:101400000129018808D021F400610180018841F0A0
:10141000400101801046704741F40061F5E730B5A6
:101420000488640614D50489A407FCD00489240622
:10143000F9D400240AE00D5D85810589AD07FCD053
:1014400005892D06F9D485891555641C9C42F2D373
:1014500030BD10B503885B0613D503899B07FCD00C
:1014600003891B06F9D4002309E0CC5C848104893C
:10147000A407FCD004892406F9D484895B1C934218
:10148000F3D310BD30B50488640613D50489A407CE
:10149000FCD004892406F9D4002409E0828105895E
:1014A000AD07FCD005892D06F9D485890D55641C3E
:1014B0009C42F3D330BD30B50488640616D5048948
:1014C000A407FCD004892406F9D400240CE031F8E8
:1014D000145085810589AD07FCD005892D06F9D406
:1014E000858922F81450641C9C42F0D330BD10B59D
:1014F00003885B0614D503899B07FCD003891B0670
:10150000F9D400230AE031F8134084810489A40748
:10151000FCD004892406F9D484895B1C9342F2D35D
:1015200010BD30B50488640614D50489A407FCD026
:1015300004892406F9D400240AE082810589AD07D4
:10154000FCD005892D06F9D4858921F81450641C36
:101550009C42F2D330BD00000050014000540140D5
:101560000030014000340140C14910B5884202D129
:101570000121841424E0BF49884202D101210414CE
:1015800004E0BD4988420AD10121C4132046FFF777
:101590003CF82046BDE810400021FFF736B8B749B7
:1015A000884202D1012144140AE0B549884202D19F
:1015B00001210C0504E0B34988420AD101214C0500
:1015C0002046FFF72CF82046BDE810400021FFF729
:1015D00026B810BD30B502884C8802F441530A8801
:1015E000CD8822438C882C4322430C8922434C898A
:1015F00022438C892243CC8922431A430280828B66
:1016000022F400628283098A018230BDF0B5022291
:101610000023858B01244FF24006354085830284E8
:10162000868B8D68022D3DD08A8802B10224964AAD
:1016300013681B0203D5136823F400031360924A56
:101640007C3213681268C3F388138F4FC2F302729F
:101650003F1F3D683F6805F03F057F0201D58B4F76
:1016600000E08B4FB7FBF5F55D43B5FBF2F2CB889D
:10167000B3F5007F2BD06301B2FBF3F202EB8202E1
:101680008B685200B2FBF3F2521D92B20A23B2FBF6
:10169000F3F202F00103D21A4FF6FF74C2F34F02C5
:1016A00004EA0323941EFE2C01D302220023CC88DB
:1016B0001A43144304840A884B881A438B88898907
:1016C0000B431A43324342F400618183F0BD120A96
:1016D000D4E70021018041808180C1800181418166
:1016E0008181C181072101827047002101804180F1
:1016F0008180C18002228260818170470029018837
:1017000002D041F0400101E021F04001018070472A
:101710000029818B02D041F4806101E021F48061D5
:1017200081837047028822F40062028002880A43A3
:1017300002807047B1F5804F018803D021F48041C9
:101740000180704741F48041FAE7A1F57E420188AB
:10175000FF3A02D041F4807101E021F480710180F0
:1017600070470029818802D041F0040101E021F096
:101770000401818070470029818802D041F0100166
:1017800001E021F010018180704730B5828B002389
:101790004FF240042240828302220284848B0A8812
:1017A0004FF48075B2F5007F00D002B92B464A880D
:1017B0008D8889892A4319430A43224342F40061F0
:1017C000818330BD808970478181704700290188FD
:1017D00002D041F4005101E021F400510180704732
:1017E000018841F4805101807047012901D0008BAC
:1017F0007047808A7047008A7047002A828801D02B
:101800000A4300E08A4382807047090901238B4024
:10181000002A828899B201D00A4300E08A4382807C
:1018200070470246002012890A4200D0012070470A
:10183000C9430181704730B501F00F03012502460D
:1018400005FA03F40020A3B2090905FA01F491880E
:10185000A4B2128921401A4202D0002900D00120EE
:1018600030BD01F00F0201219140C9430181704751
:101870000030014000380040003C0040003401408E
:1018800000500140005401400838024000127A0024
:101890000024F4002DE9F043016821F0010101600A
:1018A0000021016041608160C160016121214161CD
:1018B000B849B84A3D251039904202D18D60BDE843
:1018C000F083B44A4FF474661832904201D18E60AE
:1018D000F5E7B04A4FF474173032904201D18F606F
:1018E000EDE7AC4A4FF0746C4832904202D1C1F837
:1018F00008C0E4E7A74BA84A6033984201D1CA6008
:10190000DDE7A44CA54B7834A04201D1CB60D6E7EB
:10191000DFF88082A24C08F19008404501D1CC60EC
:10192000CDE7DFF870824FF03D5908F1A808404537
:1019300002D1C1F80C90C2E79A49DFF868820839F1
:10194000404501D10D60BAE7964D1835A84201D146
:101950000E60B4E7934D3035A84201D10F60AEE779
:10196000904D4835A84202D1C1F800C0A7E78D4D7F
:101970008C496035091FA84201D10A609FE7894A56
:101980007832904201D10B6099E7864A90329042BA
:1019900001D10C6093E7834AA83290428FD1C1F8FD
:1019A00000908CE730B503687F4ACC6813400A6822
:1019B0002243D1E905452C432243CC6922430C6ADA
:1019C00022434C6A22438C6A22434C6B22438C6B29
:1019D00022431A430260426922F00703D1E90B2433
:1019E00022431A4342610A6942604A6882608968F8
:1019F000C16030BD0021016041608160C160016152
:101A000041618161C161016241628162C1620163C0
:101A10004163816370470029016802D041F00101F0
:101A200001E021F00101016070470029016802D046
:101A300041F4004101E021F40041016070470029B8
:101A4000016802D041F0200101E021F02001016095
:101A5000704741607047406880B27047002A026852
:101A600002D042F4002201E022F40022026001616F
:101A700070470029016802D041F4802101E021F47F
:101A80008021016070470AB101617047C1607047F1
:101A9000014600200968090300D50120704701466E
:101AA00000200968C90700D001207047406900F094
:101AB0003800704702463B4B00209A4202D2354A1A
:101AC000103A01E0374A103A8B0001D5526800E025
:101AD0001268364B1A400A4200D001207047314A42
:101AE000904202D22B48103801E02E4810382F4A7D
:101AF0008B0001EA020101D5C16070478160704727
:101B00000B0607D5436912B143F0800301E023F0CF
:101B100080034361802908D0002A026801F01E0179
:101B200001D00A4300E08A430260704730B51D4A85
:101B30000024904202D2174A103A01E0194A103AA2
:101B40001B4B194205D01E2303EAD12503682B4005
:101B500002E0406900F08003880001D5506800E091
:101B60001068124A1040084201D003B101242046F7
:101B700030BD0C4A904202D20648103801E00948B4
:101B800010380A4A8B0001EA020101D5C160704792
:101B900081607047106002403D000020400F00202F
:101BA00000003D20106402403F801CF07D0F7D0F3F
:101BB0003C0F3C0F0288520601D400207047028976
:101BC0009207FCD002891206F9D481810189890724
:101BD000FCD001890906F9D48089C0B2704770B57C
:101BE00005464FF40051FE48FEF769FEFD4C042106
:101BF0002046FEF764FE2946FB48FFF7DBFF204640
:101C0000BDE870400421FEF758BE70B505464FF49C
:101C10000051F348FEF751FEF24C04212046FEF736
:101C20004EFE2946F048FFF7C5FF2046BDE870404C
:101C30000421FEF742BE2DE9F04107461C46154639
:101C40000E462A20FFF7CBFF380AFFF7DEFFF8B277
:101C5000FFF7DBFF280AFFF7D8FFE8B2FFF7D5FF51
:101C60002B20FFF7BCFF300AFFF7CFFFF0B2FFF7E2
:101C7000CCFF200AFFF7C9FFE0B2BDE8F041C4E79E
:101C80002DE9F0411D4614460E460746DDF8188042
:101C9000FFF7D1FF2C20FFF7A2FFE41BA81B401C7D
:101CA000641CD04F444304213846FEF708FE4FF42D
:101CB0000051CB48FEF701FECB4E01213046FFF725
:101CC00098FB4FF48035AC4201D3681E00E02046FB
:101CD00082B24146304600F016FD304600F046FD27
:101CE0000028FAD1AC420AD3641CA2B24146304665
:101CF00000F009FD304600F039FD0028FAD104213A
:101D00003846FEF7DAFD3046BDE8F0410021FFF726
:101D100070BB08B580B20090B448002143880088A9
:101D2000401E82B20846FFF7ABFF08BD01B5009820
:101D300001E0401E00900028FBD108BD70B5A84D01
:101D40004FF4805421462846FEF7B9FD44F620663C
:101D50003046FFF7EBFF21462846FEF7AEFD304642
:101D6000FFF7E4FF0120FFF73AFF4CF25030FFF796
:101D7000DDFFCB20FFF733FF3920FFF746FF2C2094
:101D8000FFF743FF0020FFF740FF3420FFF73DFF40
:101D90000220FFF73AFFCF20FFF721FF0020FFF7D7
:101DA00034FFC120FFF731FF3020FFF72EFFE8207E
:101DB000FFF715FF8520FFF728FF0020FFF725FF1D
:101DC0007820FFF722FFEA20FFF709FF0020FFF746
:101DD0001CFF0020FFF719FFED20FFF700FF642034
:101DE000FFF713FF0320FFF710FF1220FFF70DFF8F
:101DF0008120FFF70AFFF720FFF7F1FE2020FFF711
:101E000004FFC020FFF7EBFE2320FFF7FEFEC120FA
:101E1000FFF7E5FE1020FFF7F8FEC520FFF7DFFE15
:101E20003E20FFF7F2FE2820FFF7EFFEC720FFF766
:101E3000D6FE8620FFF7E9FE3620FFF7D0FE4820C9
:101E4000FFF7E3FE3A20FFF7CAFE5520FFF7DDFE5D
:101E5000B120FFF7C4FE0020FFF7D7FE1820FFF7E0
:101E6000D4FEB620FFF7BBFE0820FFF7CEFE82208F
:101E7000FFF7CBFE2720FFF7C8FEF220FFF7AFFEEB
:101E80000020FFF7C2FE2A20FFF7A9FE0020FFF77F
:101E9000BCFE0020FFF7B9FE0020FFF7B6FEEF20E2
:101EA000FFF7B3FE2B20FFF79AFE0020FFF7ADFEF1
:101EB0000020FFF7AAFE0120FFF7A7FE3F20FFF753
:101EC000A4FE2620FFF78BFE0120FFF79EFEE020F8
:101ED000FFF785FE0F20FFF798FE3120FFF795FEF4
:101EE0002B20FFF792FE0C20FFF78FFE0E20FFF74E
:101EF0008CFE0820FFF789FE4E20FFF786FEF120BA
:101F0000FFF783FE3720FFF780FE0720FFF77DFEF7
:101F10001020FFF77AFE0320FFF777FE0E20FFF771
:101F200074FE0920FFF771FE0020FFF76EFEE1202E
:101F3000FFF755FE0020FFF768FE0E20FFF765FE55
:101F40001420FFF762FE0320FFF75FFE1120FFF76A
:101F50005CFE0720FFF759FE3120FFF756FEC12037
:101F6000FFF753FE4820FFF750FE0820FFF74DFE15
:101F70000F20FFF74AFE0C20FFF747FE3120FFF746
:101F800044FE3620FFF741FE0F20FFF73EFE1120F2
:101F9000FFF725FE1648FFF7C9FE2920FFF71FFEB1
:101FA000BDE870402C201AE62DE9FC4101250024F3
:101FB0000B4E23462A4669033046CDE90045FEF71D
:101FC000C1FD084F0023012204213846CDE9004518
:101FD000FEF7B8FD00230122110330460AE000009D
:101FE000000C024000080240005001404000002068
:101FF00040420F00CDE90054FEF7A4FD042138460D
:10200000FEF75BFCFE4E00213046FFF7DFF830465E
:1020100000F0A1FAFFF792FEFA48F0214480048014
:10202000001D01804FF4A07141800571BDE8FC41A5
:102030004FF6FF706DE62920D1E52820CFE510B5D9
:1020400014460B460246FFF7F6FD2C20FFF7C7FDAE
:10205000C4F30720FFF7D9FDE0B2BDE81040D4E596
:102060002DE9F04104463620FFF7B9FDE54DF02794
:102070002D1D4FF4A07634B1012C06D0022C0BD0CC
:10208000032C0BD00DE0582000E08820FFF7BDFDA9
:102090002F806E80012007E0282000E0E820FFF775
:1020A000B4FD2E806F8000202871BDE8F0812DE9FD
:1020B000F84F1D469146DDE90AA3D24A10805180AF
:1020C0002C782044141D2488A04204D96878084440
:1020D00050800020108098B200906B789046518814
:1020E000B8F800005A1893B22A78024492B2FFF767
:1020F000C7FD00261CE0A9F1200111FB00606A6801
:10210000002432F810700FE007FA04F000040AD53A
:10211000B8F80210B8F800003144204489B280B207
:102120005246FFF78CFF641C2878A042ECD8761C3E
:102130006878B042DFD82978B8F800201144A8F8B0
:102140000010BDE8F88F2DE9FC47AE4DDDE90A9897
:1021500028801F461446064669800BE00A2A0ED0E6
:102160000D2A15D0CDE900983B4669882888641C63
:10217000FFF79DFF2278002AF0D1BDE8FC87688830
:102180007978401C0844688060780D2802D02E8041
:10219000641CEFE700202880641CF9E730B54D7817
:1021A00000241D8002E00B7823449CB210F8013B10
:1021B000002BF8D1148030BD2DE9FC5F9046914A88
:1021C0000C46121D054611881F46481EA94200D81C
:1021D00085B2414501D81FFA80F85188481EA142B6
:1021E00000D884B2B94200D887B2454502D9284602
:1021F00045468046BC4202D920463C460746A8EBED
:10220000050000B25FEA000AA7EB04000FFA80F9AC
:1022100008D0B9F1000F05D04FF0FF3045450CD282
:1022200001210BE00C983B4680B2009042462146CB
:102230002846FFF725FDBDE8FC9F01460191BC4201
:1022400000D2012000905046CA4501DCC9F10000CF
:1022500000EBD070401006B2CAF1000B21462846B0
:102260000C9AFFF7ECFE454501D1BC42E3D0304665
:102270005E4505DDA0EB09010EB2019929448DB23E
:102280004845EBDA06EB0A0006B20098204484B217
:10229000E4E72DE9F8431D46089C16460F468046A4
:1022A0000B460094FFF788FF42462B4639461046FE
:1022B0000094FFF781FF32462B46394610460094C2
:1022C000FFF77AFF2B463246194640460094FFF747
:1022D00073FFBDE8F88338B59042049D02D90446E7
:1022E00010462246994202D90C4619462346ACB202
:1022F0000094FFF7C5FCBDE8384004214248FEF7D2
:10230000DCBA2DE9FF4F0746C2F1010014460FFA6F
:1023100080F8C2EBC43040000FFA80F983B00E465B
:10232000081981B24FF0010A0025B8B2069AFFF7EA
:1023300086FE301B81B2B8B2069AFFF780FE3819CC
:10234000B1B280B2069AFFF77AFEB1B2381B56E0FE
:10235000B8F1000F09DB09F102000FFA80F9641EE1
:1023600008EB090024B20FFA80F80AF102000FFA14
:1023700080FA6D1C08EB0A002DB20FFA80F878196C
:10238000019006EB040B1FFA8BF180B2069AFFF75F
:1023900056FE781B00901FFA8BF180B2069AFFF769
:1023A0004EFE0198A6EB040B1FFA8BF180B2069A41
:1023B000FFF745FE00981FFA8BF180B2069AFFF7EF
:1023C0003EFE3819019006EB050B1FFA8BF180B227
:1023D000069AFFF734FE381B00901FFA8BF180B28B
:1023E000069AFFF72CFE0198A6EB050B1FFA8BF15E
:1023F00080B2069AFFF723FE1FFA8BF1009805E0E2
:10240000005001403C0000200008024080B2069AC3
:10241000FFF715FEA5429BDB07B0BDE8F08F2DE965
:10242000FE4F0746C2F1010014460FFA80F8C2EBD6
:10243000C43040000FFA80FA0E46081981B299465E
:102440004FF0010B0025B8B21A46FFF7F8FD301B1C
:1024500081B2B8B24A46FFF7F2FD38190290B1B224
:1024600080B24A46FFF7EBFD381B0190B1B280B253
:102470004A46FFF7E4FD0298B3B2CDF8009082B26D
:10248000B1B240E0B8F1000F09DB0AF102000FFA27
:1024900080FA641E08EB0A0024B20FFA80F80BF1F0
:1024A00002000FFA80FB6D1C08EB0B002DB20FFA37
:1024B00080F8781982B20290781BCDE9009031192A
:1024C0008BB289B280B2FFF777FE0198311B82B2DE
:1024D00002988BB2CDF8009089B280B2FFF76CFE03
:1024E000381B82B202903819CDE9009071198BB275
:1024F00089B280B2FFF760FE711B02988BB2CDF8F3
:10250000009082B289B2019880B2FFF755FEA542D1
:10251000B8DBBDE8FE8F0000AF4A0146904200D113
:10252000AE48AF4A914201D1AC481830AD4A914211
:1025300001D1AA483030AC4A914201D1A748483075
:10254000AA4A914201D1A5486030A94A914201D1DD
:10255000A2487830704710B5FFF7DEFFA54AA649BC
:10256000436893420B6802D343F4800301E043F4D1
:1025700000130B60C0689042086802D340F48000EA
:1025800001E040F4001008609C4900204861C861E7
:10259000086248628862C86208634863886310BD45
:1025A0002DE9F0411F4614460D468046069EFFF772
:1025B000B3FF80E8F0004046BDE8F041CBE710B53E
:1025C000FFF7AAFF04464068FFF764F9E068BDE83A
:1025D0001040FFF75FB92DE9F0479A4617460D46C0
:1025E0000646FFF799FF0446C068406818BB60685C
:1025F000406800BB55EA07001DD0DFF800824FF0AD
:102600000009A4F81490C8F82090C8F810A006F1AA
:102610000C01C8F81C90C8F804102168C8F8001014
:10262000402140464FF4806AC8F80C1035B18560EF
:10263000C8F818A007E00020BDE8F08704F11001F9
:102640008160C8F818903D21606800F0D9F86B49A6
:102650006068FFF7A7F9A168C8F80010404649462E
:10266000C8F80C901FB18760C8F818A004E004F106
:1026700010028260C8F818103D21E06800F0C0F830
:102680005E49E068FFF78EF9E068016841F00101FA
:1026900001606068016841F001010160B08840F0AC
:1026A0000300B0800120C7E72DE9F04116460F4630
:1026B0000546FFF731FF04464068406810B100202E
:1026C000BDE8F0814D48276105F10C0106614160CC
:1026D000002181612268026040220162C260C16102
:1026E0003D21606800F08CF844496068FFF75AF9B2
:1026F0006068016841F001010160A88840F00200B3
:10270000A8800120DCE72DE9F04116460F4605467A
:10271000FFF702FF04464068406808B10020CFE799
:102720003648A78205F10C010661416004F11401ED
:10273000816000218161216801604021C160C9017F
:1027400001628910C1613D21606800F059F82B4990
:102750006068FFF727F96068016841F001010160D6
:10276000A88840F00200A8800120A9E710B504461F
:10277000FFF7D2FEC168496841B94068406828B98E
:102780002089800702D02089000601D5012010BDD4
:10279000002010BD10B5FFF7BFFE406810BD10B59A
:1027A000FFF7BAFEC06810BD10B5FFF7B5FE0446CE
:1027B000406800F05BF8E068BDE8104000F056B8F3
:1027C00010B5FFF7A9FE0446406800F07EF8E06807
:1027D000BDE8104000F079B800300140480000200A
:1027E00000380040003C00400034014000500140EF
:1027F00000540140106402403038024010010020B3
:10280000784A10B51823904202D2774A774C03E0F9
:10281000744A744C083A64422044B0FBF3F0042834
:1028200001D3001F121D724B01F03D01185C814065
:10283000116010BD3D21E3E76A491822884203D2A6
:1028400069496A4B083903E06649664B10395B42B7
:102850001844B0FBF2F0042801D3001F091D0968D9
:10286000634A105CC14001F03D00704738B5044632
:102870003D21FFF7C5FF5E4A5A4B1820121D01216A
:102880009C4207D2594B8DF801102344B3FBF0F062
:10289000125C08E0534B8DF801105B422344B3FBFC
:1028A000F0F00244127A8DF800208DF803108DF8B4
:1028B00002006846FDF79BFC206840F01E00206087
:1028C000606940F08000606138BD10B504463D216C
:1028D000FFF796FF4648434A1821001D944201D253
:1028E000424A01E03F4A52422244B2FBF1F14056D3
:1028F000012100F01F0291404009800000F1E0201A
:10290000C0F88011206820F01E002060606900F08F
:102910008000606110BD7047704770477047704716
:1029200070B505463D21FFF787FF84B23D2128465B
:10293000FFF766FFA00605D52868C00602D5284621
:10294000FFF7E9FFE00605D52868000702D528460D
:10295000FFF7E2FF200705D52868400702D5284683
:10296000FFF7DBFF600705D52868800702D52846FA
:10297000FFF7D4FFE00705D06869000602D52846B6
:10298000FFF7CDFF70BD18480830C9E71648203062
:10299000C6E715483830C3E713485030C0E712483F
:1029A0006830BDE710488030BAE70F489830B7E785
:1029B0000D48B030B4E70B48B2E70A481830AFE72B
:1029C00008483030ACE707484830A9E70548603090
:1029D000A6E704487830A3E702489030A0E7014812
:1029E000A8309DE71064024008600240F09FFDBFE0
:1029F00050380008064C074D06E0E06840F001033F
:102A000094E8070098471034AC42F6D3FDF7D2FBA8
:102A1000643800088438000802E008C8121F08C1A2
:102A2000002AFAD170477047002001E001C1121F4F
:102A3000002AFBD17047000010B5002821D0114BAF
:102A40000022001F196803E0814203D80A46496842
:102A50000029F9D152B11368841A9C4204D100684C
:102A600018441060104602E0506000E0186039B170
:102A700002680B1A934203D10B681A44026049683A
:102A8000416010BDD8000020F0B50B30154D20F08E
:102A900007010024144A0FE003688B420BD38B42DA
:102AA00005D95E1A43184768C3E9006700E0436828
:102AB000136002C004E0021D10680028ECD120461B
:102AC000002802D1286808B10020F0BD064A074856
:102AD0001060074A121A22F00702C0E90024012000
:102AE0002860D7E7DC000020D80000205401002037
:102AF0005003002000000000000000000000000063
:102B000000000000000000000000000000000000C5
:102B100000000000000000000000000C000C000C91
:102B2000000C000C000C000C000C000C000C000C45
:102B30000000000C000C0000000000000000001B62
:102B4000001B001B001B001B000000000000000019
:102B50000000000000000000000000000000000075
:102B600000008019801980198019C07FC07F8019EA
:102B70000033C07FC07F00330033003300330000D8
:102B8000000000000000001E003F8075806500749A
:102B9000003C001E00078005806580658075003F51
:102BA000001E0004000400000000007000D840D89F
:102BB000C0D880D900730006000C801BC036C066E8
:102BC000C046C00680030000000000000000001E98
:102BD000003F003300330033001E000CC03CC066D1
:102BE000806380618063C03E801C000000000000A4
:102BF0000000000C000C000C000C000C0000000099
:102C000000000000000000000000000000000000C4
:102C10000000000080000001000300060006000420
:102C2000000C000C000C000C000C000C0004000652
:102C30000006000300018000002000100018000CB6
:102C4000000C000400060006000600060006000650
:102C50000004000C000C0018001000200000000C04
:102C6000002D003F001E00330000000000000000A7
:102C70000000000000000000000000000000000054
:102C8000000000000000000C000C000C000CC0FF55
:102C9000C0FF000C000C000C000C00000000000045
:102CA0000000000000000000000000000000000024
:102CB0000000000000000000000000000000000C08
:102CC000000C0004000400080000000000000000E8
:102CD00000000000000000000000001E001E0000B8
:102CE00000000000000000000000000000000000E4
:102CF00000000000000000000000000000000000D4
:102D0000000000000000000C000C000000000000AB
:102D10000000000300030003000600060006000692
:102D2000000C000C000C000C00180018001800002B
:102D3000000000000000001E003F00338061806141
:102D40008061806D806D8061806180610033003FB3
:102D5000001E00000000000000000006000E001E23
:102D600000360026000600060006000600060006E3
:102D70000006000600060000000000000000001E23
:102D8000003F807380618061800100030006000CB9
:102D9000001800300060807F807F0000000000008D
:102DA0000000001C003E006300630003000E000EE4
:102DB00000038001800180618073003F001E0000DD
:102DC0000000000000000006000E000E001E001EA5
:102DD0000016003600360066807F807F0006000601
:102DE00000060000000000000000007F007F00607F
:102DF00000600060006E007F806380018001806160
:102E00008073003F001E0000000000000000001E54
:102E1000003F803380610060006E007F80738061BE
:102E2000806180618033003F001E000000000000D0
:102E30000000807F807F8001000300030006000601
:102E4000000C000C000C000800180018001800000E
:102E5000000000000000001E003F80638061806170
:102E60000021001E003F8061806180618061003F21
:102E7000001E0000000000000000001E003F007364
:102E80008061806180618073803F801D80018061EE
:102E90000073003F001E0000000000000000000062
:102EA000000000000000000C000C0000000000000A
:102EB000000000000000000C000C000000000000FA
:102EC000000000000000000000000000000C000CEA
:102ED00000000000000000000000000C000C0004D6
:102EE00000040008000000000000000080008003D3
:102EF000000E003800600038000E800380000000E3
:102F000000000000000000000000000000000000C1
:102F10000000807F807F00000000807F807F0000B5
:102F200000000000000000000000000000000000A1
:102F30000000000000400070001C00078001000736
:102F4000001C0070004000000000000000000000B5
:102F50000000001F803FC071C060C000C00180033E
:102F60000007000E000C000C0000000C000C00001C
:102F7000000000000000001E003F8031807180636F
:102F8000806F806D806D806F806700600032003ED2
:102F9000001C0000000000000000000E000E001BDE
:102FA000001B001B001B80318031803F803F80313F
:102FB000C060C060C0600000000000000000007C35
:102FC000007E0063006300630063007E007E006398
:102FD000806180618063007F007E0000000000004F
:102FE0000000001E003F80318061006000600060D2
:102FF00000600060006080618031003F001E0000C2
:10300000000000000000007C007F0063806380619E
:103010008061806180618061806100630063007E07
:10302000007C0000000000000000807F807F0060C6
:10303000006000600060007F007F00600060006052
:103040000060807F807F0000000000000000807F23
:10305000807F0060006000600060007F007F006093
:103060000060006000600060006000000000000080
:103070000000001E003F8031806100600060006041
:1030800080638063806180618031803F001E00002A
:1030900000000000000080618061806180618061CB
:1030A0008061807F807F80618061806180618061DC
:1030B00080610000000000000000003F003F000CA5
:1030C000000C000C000C000C000C000C000C000CA0
:1030D000000C003F003F00000000000000008001E5
:1030E00080018001800180018001800180018001D8
:1030F000806180618073003F001E000000000000BE
:103100000000C0608061006300660066006C0078AB
:10311000007C00660066006380618061C060000022
:1031200000000000000000600060006000600060BF
:103130000060006000600060006000600060807FF0
:10314000807F0000000000000000C071C071C07BE3
:10315000C07AC06AC06AC06EC064C060C060C0602F
:10316000C060C060C060000000000000000080710E
:103170008071807980798079806D806D806D8065C7
:1031800080678067806780638063000000000000C4
:103190000000001E003F003380618061806180611B
:1031A00080618061806180610033003F001E00000B
:1031B000000000000000007E007F8063806180616D
:1031C00080618063007F007E0060006000600060BE
:1031D00000600000000000000000001E003F0033FF
:1031E00080618061806180618061806180658067CD
:1031F0000033803F401E0000000000000000007E01
:10320000007F8063806180618063007F007E006654
:103210000063006380618061C06000000000000006
:103220000000000E001F8031803100300038001E89
:1032300000078003806180618031003F001E000034
:10324000000000000000C0FFC0FF000C000C000CDC
:10325000000C000C000C000C000C000C000C000C0E
:10326000000C0000000000000000806180618061AF
:103270008061806180618061806180618061806146
:103280008073003F001E0000000000000000C060CE
:10329000C060C060803180318031001B001B001B8A
:1032A000001B000E000E000E0004000000000000D5
:1032B0000000C0C0C0C0C0C0C0C0C0C0C0CC804C36
:1032C000804C805E805280528073806180610000FB
:1032D000000000000000C0C0806080610033003B3F
:1032E000001E000C000C001E001F003B807180615E
:1032F000C0C00000000000000000C0C0806180610C
:1033000000330033001E001E000C000C000C000CEB
:10331000000C000C000C0000000000000000803FCA
:10332000803F8001000300030006000C000C001821
:10333000001800300060807F807F000000000000E7
:10334000000F000F000C000C000C000C000C000C17
:10335000000C000C000C000C000C000C000C000C0D
:10336000000F000F0000001800180018000C000CDF
:10337000000C000C00060006000600060003000317
:103380000003000000000000001E001E00060006F2
:1033900000060006000600060006000600060006FD
:1033A0000006000600060006001E001E0000000CBD
:1033B000000C001E001200330033806180610000A9
:1033C00000000000000000000000000000000000FD
:1033D00000000000000000000000000000000000ED
:1033E00000000000000000000000000000000000DD
:1033F000E0FF0000000000380018000C0000000092
:1034000000000000000000000000000000000000BC
:1034100000000000000000000000000000000000AC
:103420000000001F803F80618001801F803F80611D
:103430008063807FC0380000000000000000006052
:10344000006000600060006E007F807380618061BA
:10345000806180618073007F006E000000000000CA
:1034600000000000000000000000001E003F80730C
:1034700080610060006080618073003F001E00007A
:103480000000000000008001800180018001801D9B
:10349000803F807380618061806180618073803F44
:1034A000801D00000000000000000000000000007F
:1034B0000000001E003F00738061807F807F0060FD
:1034C0008071003F001E0000000000000000C007E7
:1034D000C00F000C000C807F807F000C000C000CE3
:1034E000000C000C000C000C000C000000000000A0
:1034F0000000000000000000801D803F807380619C
:103500008061806180618073803F801D8001806365
:10351000007F003E00000060006000600060006FFF
:10352000807F807180618061806180618061806165
:10353000806100000000000000000006000600009E
:103540000000003E003E00060006000600060006E1
:10355000000600060006000000000000000600064D
:1035600000000000003E003E0006000600060006C7
:10357000000600060006000600060046007E003C2D
:103580000000006000600060006080610063006611
:10359000006C007C0076006300638061C060000006
:1035A000000000000000003E003E0006000600068D
:1035B00000060006000600060006000600060006DB
:1035C00000060000000000000000000000000000F5
:1035D000000080DDC0FFC0CEC0CCC0CCC0CCC0CC11
:1035E000C0CCC0CCC0CC0000000000000000000037
:1035F000000000000000006F807F807180618061AA
:103600008061806180618061806100000000000055
:1036100000000000000000000000001E003F80735A
:1036200080618061806180618073003F001E0000C6
:10363000000000000000000000000000006E007F9D
:10364000807380618061806180618073007F006E23
:1036500000600060006000600000000000000000EA
:10366000801D803F80738061806180618061807394
:10367000803F801D800180018001800100000000EA
:103680000000000000000067803F0039003000307B
:10369000003000300030003000300000000000003A
:1036A00000000000000000000000001E803F80615C
:1036B0000060007F803F80018061007F001E00006D
:1036C0000000000000000000000800180018007F43
:1036D000007F001800180018001800180018801F3C
:1036E000800F00000000000000000000000000004B
:1036F00000008061806180618061806180618061A3
:103700008063807F803D000000000000000000001A
:10371000000000000000C060803180318031001B5B
:10372000001B001B000E000E000600000000000041
:103730000000000000000000000080DD80DD80DD72
:103740000055005500550077007700220022000048
:103750000000000000000000000000000000806188
:1037600000330033001E000C000C001E0033003339
:103770008061000000000000000000000000000068
:1037800080618061803100330033001B001B001B0F
:10379000000E000E000E001C007C007000000000F7
:1037A000000000000000C07FC07F80010003000611
:1037B000000C00180030C07FC07F00000000000037
:1037C0008003800700060006000600060006000EC3
:1037D000001C001C000E0006000600060006000685
:1037E00080078003000600060006000600060006AB
:1037F0000006000600060006000600060006000699
:1038000000060006000600060038003C000C000C14
:10381000000C000C000C000E00070007000E000C4E
:10382000000C000C000C000C003C003800000000F4
:10383000000000000000000000008038807F00478A
:103840000000000000000000000000000000000078
:10385000000610160B0C0D0E0F10112F38393A3BC5
:103860003C4445468438000800000020E000000089
:10387000182A000864390008E000002070060000E3
:10388000282A0008000000000102030401020304CA
:10389000060708090000000000000000000000000A
:1038A000000000000095BA0A0000000000000000BF
:1038B00001020304060708090B120000F42A00089D
:1038C00000000000000000000000000000000006F2
:1038D00058640240000000064064024000000000FE
:1038E00000000000000000007060024000000000C6
:1038F00058600240000000000000000000000000CE
:1039000088600240000000001060024000000000DB
:1039100000000000000000082864024000000008C9
:103920001064024000000000000000000000000ED3
:10393000A06402400000000E886402400000000005
:103940000000000000000002886402400000000245
:10395000A064024000000000000000000000000021
:043960000000000063
:04000005080001AD41
:00000001FF
